:100000000C942A000C9400000C9400000C94000046
:100010000C9400000C9400000C9400000C94000060
:100020000C9400000C9445000C9400000C9400000B
:100030000C9400000C9400000C9400000C94000040
:100040000C9400000C9400000C9400000C94000030
:100050000C940000F894EE27ECBBF1E0FBBFEBBF83
:10006000E5BF8DE0A2E0BB27ED938A95E9F780E03C
:1000700094E0A0E6ED930197E9F7EFE5EDBFE4E04A
:10008000EEBFC0E6D1E00C948F000A92EA93FA9397
:10009000EFB7EA93ECE0E2BF042C052819F4C09A0C
:1000A000C1981BC0E1E0F0E0E415F50529F4C09A21
:1000B000C198C29AC39813C0E2E0F0E0E415F505D8
:1000C00029F4C098C19AC29AC39809C0E3E0F0E04D
:1000D000E415F50521F4C098C19AC298C39A00248A
:1000E0000614070464F4E3E0F0E04E165F0624F41F
:1000F000F20131962F0102C0442455240AC0002485
:10010000041405041CF4F201319702C0E3E0F0E0AE
:100110002F01E991EFBFF991E99109901895E1E07C
:10012000F0E02F013F01E0E0E4BBE3BBEFEFE7BB12
:10013000E0E0E8BBE4E0E3BFECE0E2BFE0E0ECBF1E
:10014000EFBDEEBDEDBDECBDE7BDE6BDEBBDEABD6F
:10015000E9BDE8BDE2BDE5BDE4BDE3BDE1E0E9BF69
:10016000E0E0E5BFE4BFEAB9E0E8E8B9E0E0E0BF1D
:10017000E6B9EDB9E6BF78949A9920C00024061438
:1001800007047CF0E1E0F0E03F01E3E0F0E04E1630
:100190005F0624F4F20131962F0102C04424552455
:1001A0000DC0EFEFFFEF3F010024041405041CF421
:1001B000F201319702C0E3E0F0E02F01DDCFFFCF85
:00000001FF
